{
  "contractName": "IncomingDonation",
  "abi": [
    {
      "constant": true,
      "inputs": [],
      "name": "note",
      "outputs": [
        {
          "name": "",
          "type": "string"
        }
      ],
      "payable": false,
      "stateMutability": "view",
      "type": "function"
    },
    {
      "constant": true,
      "inputs": [],
      "name": "isIncomingDonation",
      "outputs": [
        {
          "name": "",
          "type": "bool"
        }
      ],
      "payable": false,
      "stateMutability": "pure",
      "type": "function"
    },
    {
      "constant": true,
      "inputs": [],
      "name": "realWorldIdentifier",
      "outputs": [
        {
          "name": "",
          "type": "string"
        }
      ],
      "payable": false,
      "stateMutability": "view",
      "type": "function"
    },
    {
      "constant": false,
      "inputs": [
        {
          "name": "_charityEvent",
          "type": "address"
        },
        {
          "name": "_amount",
          "type": "uint256"
        }
      ],
      "name": "moveToCharityEvent",
      "outputs": [],
      "payable": false,
      "stateMutability": "nonpayable",
      "type": "function"
    },
    {
      "constant": true,
      "inputs": [],
      "name": "token",
      "outputs": [
        {
          "name": "",
          "type": "address"
        }
      ],
      "payable": false,
      "stateMutability": "view",
      "type": "function"
    },
    {
      "inputs": [
        {
          "name": "_token",
          "type": "address"
        },
        {
          "name": "_realWorldIdentifier",
          "type": "string"
        },
        {
          "name": "_note",
          "type": "string"
        }
      ],
      "payable": false,
      "stateMutability": "nonpayable",
      "type": "constructor"
    },
    {
      "anonymous": false,
      "inputs": [
        {
          "indexed": true,
          "name": "donation",
          "type": "address"
        },
        {
          "indexed": true,
          "name": "charityEvent",
          "type": "address"
        },
        {
          "indexed": true,
          "name": "who",
          "type": "address"
        },
        {
          "indexed": false,
          "name": "amount",
          "type": "uint256"
        }
      ],
      "name": "FundsMovedToCharityEvent",
      "type": "event"
    }
  ],
  "bytecode": "0x6060604052341561000f57600080fd5b60405161067738038061067783398101604052808051906020019091908051820191906020018051820191905050600073ffffffffffffffffffffffffffffffffffffffff168373ffffffffffffffffffffffffffffffffffffffff161415151561007957600080fd5b826000806101000a81548173ffffffffffffffffffffffffffffffffffffffff021916908373ffffffffffffffffffffffffffffffffffffffff16021790555081600190805190602001906100cf9291906100ef565b5080600290805190602001906100e69291906100ef565b50505050610194565b828054600181600116156101000203166002900490600052602060002090601f016020900481019282601f1061013057805160ff191683800117855561015e565b8280016001018555821561015e579182015b8281111561015d578251825591602001919060010190610142565b5b50905061016b919061016f565b5090565b61019191905b8082111561018d576000816000905550600101610175565b5090565b90565b6104d4806101a36000396000f30060606040526004361061006d576000357c0100000000000000000000000000000000000000000000000000000000900463ffffffff16806326d111f5146100725780634fc42c6a14610100578063561416761461012d578063b9a45767146101bb578063fc0c546a146101fd575b600080fd5b341561007d57600080fd5b610085610252565b6040518080602001828103825283818151815260200191508051906020019080838360005b838110156100c55780820151818401526020810190506100aa565b50505050905090810190601f1680156100f25780820380516001836020036101000a031916815260200191505b509250505060405180910390f35b341561010b57600080fd5b6101136102f0565b604051808215151515815260200191505060405180910390f35b341561013857600080fd5b6101406102f9565b6040518080602001828103825283818151815260200191508051906020019080838360005b83811015610180578082015181840152602081019050610165565b50505050905090810190601f1680156101ad5780820380516001836020036101000a031916815260200191505b509250505060405180910390f35b34156101c657600080fd5b6101fb600480803573ffffffffffffffffffffffffffffffffffffffff16906020019091908035906020019091905050610397565b005b341561020857600080fd5b610210610483565b604051808273ffffffffffffffffffffffffffffffffffffffff1673ffffffffffffffffffffffffffffffffffffffff16815260200191505060405180910390f35b60028054600181600116156101000203166002900480601f0160208091040260200160405190810160405280929190818152602001828054600181600116156101000203166002900480156102e85780601f106102bd576101008083540402835291602001916102e8565b820191906000526020600020905b8154815290600101906020018083116102cb57829003601f168201915b505050505081565b60006001905090565b60018054600181600116156101000203166002900480601f01602080910402602001604051908101604052809291908181526020018280546001816001161561010002031660029004801561038f5780601f106103645761010080835404028352916020019161038f565b820191906000526020600020905b81548152906001019060200180831161037257829003601f168201915b505050505081565b6000809054906101000a900473ffffffffffffffffffffffffffffffffffffffff1673ffffffffffffffffffffffffffffffffffffffff1663a9059cbb83836000604051602001526040518363ffffffff167c0100000000000000000000000000000000000000000000000000000000028152600401808373ffffffffffffffffffffffffffffffffffffffff1673ffffffffffffffffffffffffffffffffffffffff16815260200182815260200192505050602060405180830381600087803b151561046357600080fd5b6102c65a03f1151561047457600080fd5b50505060405180519050505050565b6000809054906101000a900473ffffffffffffffffffffffffffffffffffffffff16815600a165627a7a723058208adc97c76c3f61b3561a31d6cc58f0acdd9257b7d2f193662fca8d5b3c06e4b90029",
  "source": "pragma solidity ^0.4.17;\r\n\r\nimport '../OpenCharityToken.sol';\r\n\r\ncontract IncomingDonation {\r\n\r\n    OpenCharityToken public token;\r\n\r\n    // this field helps to identify and link fiat payment\r\n    // with entity inside the OpenCharity\r\n    // for example bank transaction ID\r\n    string public realWorldIdentifier;\r\n\r\n\r\n    // optional note. can be anything\r\n    string public note;\r\n\r\n    /**\r\n     * @dev Events emitted when donation funds moved to charity event\r\n     * @param donation address of donation\r\n     * @param charityEvent address of target charity event\r\n     * @param who address which initiate transaction\r\n     * @param amount how much tokens moved\r\n     */\r\n    event FundsMovedToCharityEvent(address indexed donation, address indexed charityEvent, address indexed who, uint amount);\r\n\r\n\r\n\r\n    function IncomingDonation(address _token, string _realWorldIdentifier, string _note) public {\r\n        require(_token != address(0x0));\r\n\r\n        token = OpenCharityToken(_token);\r\n\r\n        realWorldIdentifier = _realWorldIdentifier;\r\n        note = _note;\r\n    }\r\n\r\n    function moveToCharityEvent(address _charityEvent, uint _amount) public {\r\n        token.transfer(_charityEvent, _amount);\r\n    }\r\n\r\n    // check that contract is charity event contract\r\n    function isIncomingDonation() pure public returns (bool) {\r\n        return true;\r\n    }\r\n\r\n\r\n}\r\n",
  "sourcePath": "C:\\NodeJS\\gitHub\\oc_client\\contracts\\app\\IncomingDonation.sol",
  "compiler": {
    "name": "solc",
    "version": "0.4.18+commit.9cf6e910.Emscripten.clang"
  },
  "schemaVersion": "1.0.1",
  "updatedAt": "2018-01-31T10:57:06.036Z"
}