{
  "contractName": "Organization",
  "abi": [
    {
      "constant": true,
      "inputs": [],
      "name": "name",
      "outputs": [
        {
          "name": "",
          "type": "string"
        }
      ],
      "payable": false,
      "stateMutability": "view",
      "type": "function"
    },
    {
      "constant": false,
      "inputs": [
        {
          "name": "_realWorldIdentifier",
          "type": "string"
        },
        {
          "name": "_amount",
          "type": "uint256"
        },
        {
          "name": "_note",
          "type": "string"
        }
      ],
      "name": "setIncomingDonation",
      "outputs": [
        {
          "name": "",
          "type": "address"
        }
      ],
      "payable": false,
      "stateMutability": "nonpayable",
      "type": "function"
    },
    {
      "constant": true,
      "inputs": [],
      "name": "incomingDonationCount",
      "outputs": [
        {
          "name": "",
          "type": "uint256"
        }
      ],
      "payable": false,
      "stateMutability": "view",
      "type": "function"
    },
    {
      "constant": false,
      "inputs": [
        {
          "name": "_firstName",
          "type": "string"
        },
        {
          "name": "_lastName",
          "type": "string"
        }
      ],
      "name": "addEmployee",
      "outputs": [
        {
          "name": "",
          "type": "address"
        }
      ],
      "payable": false,
      "stateMutability": "nonpayable",
      "type": "function"
    },
    {
      "constant": true,
      "inputs": [
        {
          "name": "",
          "type": "address"
        }
      ],
      "name": "admins",
      "outputs": [
        {
          "name": "",
          "type": "bool"
        }
      ],
      "payable": false,
      "stateMutability": "view",
      "type": "function"
    },
    {
      "constant": false,
      "inputs": [
        {
          "name": "admin",
          "type": "address"
        },
        {
          "name": "value",
          "type": "bool"
        }
      ],
      "name": "setAdmin",
      "outputs": [],
      "payable": false,
      "stateMutability": "nonpayable",
      "type": "function"
    },
    {
      "constant": true,
      "inputs": [],
      "name": "charityEventCount",
      "outputs": [
        {
          "name": "",
          "type": "uint256"
        }
      ],
      "payable": false,
      "stateMutability": "view",
      "type": "function"
    },
    {
      "constant": true,
      "inputs": [
        {
          "name": "",
          "type": "uint256"
        }
      ],
      "name": "incomingDonationIndex",
      "outputs": [
        {
          "name": "",
          "type": "address"
        }
      ],
      "payable": false,
      "stateMutability": "view",
      "type": "function"
    },
    {
      "constant": true,
      "inputs": [],
      "name": "employeeCount",
      "outputs": [
        {
          "name": "",
          "type": "uint256"
        }
      ],
      "payable": false,
      "stateMutability": "view",
      "type": "function"
    },
    {
      "constant": true,
      "inputs": [
        {
          "name": "",
          "type": "uint256"
        }
      ],
      "name": "employeeIndex",
      "outputs": [
        {
          "name": "",
          "type": "address"
        }
      ],
      "payable": false,
      "stateMutability": "view",
      "type": "function"
    },
    {
      "constant": true,
      "inputs": [
        {
          "name": "",
          "type": "uint256"
        }
      ],
      "name": "charityEventIndex",
      "outputs": [
        {
          "name": "",
          "type": "address"
        }
      ],
      "payable": false,
      "stateMutability": "view",
      "type": "function"
    },
    {
      "constant": true,
      "inputs": [],
      "name": "isAdmin",
      "outputs": [
        {
          "name": "",
          "type": "bool"
        }
      ],
      "payable": false,
      "stateMutability": "view",
      "type": "function"
    },
    {
      "constant": false,
      "inputs": [
        {
          "name": "_name",
          "type": "string"
        },
        {
          "name": "_target",
          "type": "uint256"
        },
        {
          "name": "_payed",
          "type": "uint256"
        }
      ],
      "name": "addCharityEvent",
      "outputs": [
        {
          "name": "",
          "type": "address"
        }
      ],
      "payable": false,
      "stateMutability": "nonpayable",
      "type": "function"
    },
    {
      "constant": true,
      "inputs": [
        {
          "name": "",
          "type": "address"
        }
      ],
      "name": "employees",
      "outputs": [
        {
          "name": "",
          "type": "bool"
        }
      ],
      "payable": false,
      "stateMutability": "view",
      "type": "function"
    },
    {
      "constant": true,
      "inputs": [
        {
          "name": "",
          "type": "address"
        }
      ],
      "name": "incomingDonations",
      "outputs": [
        {
          "name": "",
          "type": "bool"
        }
      ],
      "payable": false,
      "stateMutability": "view",
      "type": "function"
    },
    {
      "constant": true,
      "inputs": [
        {
          "name": "",
          "type": "address"
        }
      ],
      "name": "charityEvents",
      "outputs": [
        {
          "name": "",
          "type": "bool"
        }
      ],
      "payable": false,
      "stateMutability": "view",
      "type": "function"
    },
    {
      "inputs": [
        {
          "name": "_token",
          "type": "address"
        },
        {
          "name": "_admins",
          "type": "address[]"
        },
        {
          "name": "_name",
          "type": "string"
        }
      ],
      "payable": false,
      "stateMutability": "nonpayable",
      "type": "constructor"
    },
    {
      "anonymous": false,
      "inputs": [
        {
          "indexed": true,
          "name": "organization",
          "type": "address"
        },
        {
          "indexed": false,
          "name": "employee",
          "type": "address"
        }
      ],
      "name": "EmployeeAdded",
      "type": "event"
    },
    {
      "anonymous": false,
      "inputs": [
        {
          "indexed": true,
          "name": "organization",
          "type": "address"
        },
        {
          "indexed": false,
          "name": "charityEvent",
          "type": "address"
        }
      ],
      "name": "CharityEventAdded",
      "type": "event"
    },
    {
      "anonymous": false,
      "inputs": [
        {
          "indexed": true,
          "name": "organization",
          "type": "address"
        },
        {
          "indexed": false,
          "name": "incomingDonation",
          "type": "address"
        },
        {
          "indexed": true,
          "name": "who",
          "type": "address"
        },
        {
          "indexed": false,
          "name": "amount",
          "type": "uint256"
        }
      ],
      "name": "IncomingDonationAdded",
      "type": "event"
    }
  ],
  "bytecode": "0x6060604052600060055560006008556000600b5534156200001f57600080fd5b60405162002726380380620027268339810160405280805190602001909190805182019190602001805182019190505060008083511115156200006157600080fd5b600090505b82518110156200014357600073ffffffffffffffffffffffffffffffffffffffff1683828151811015156200009757fe5b9060200190602002015173ffffffffffffffffffffffffffffffffffffffff1614151515620000c557600080fd5b6001600260008584815181101515620000da57fe5b9060200190602002015173ffffffffffffffffffffffffffffffffffffffff1673ffffffffffffffffffffffffffffffffffffffff16815260200190815260200160002060006101000a81548160ff021916908315150217905550808060010191505062000066565b81600190805190602001906200015b929190620001a6565b50836000806101000a81548173ffffffffffffffffffffffffffffffffffffffff021916908373ffffffffffffffffffffffffffffffffffffffff1602179055505050505062000255565b828054600181600116156101000203166002900490600052602060002090601f016020900481019282601f10620001e957805160ff19168380011785556200021a565b828001600101855582156200021a579182015b8281111562000219578251825591602001919060010190620001fc565b5b5090506200022991906200022d565b5090565b6200025291905b808211156200024e57600081600090555060010162000234565b5090565b90565b6124c180620002656000396000f300606060405260043610620000f7576000357c0100000000000000000000000000000000000000000000000000000000900463ffffffff16806306fdde0314620000fc57806308bdb51b14620001905780630def5d7b146200027c5780633e9231cd14620002a8578063429b62e5146200038b5780634b0bddd214620003df5780638ccc66f214620004265780638d97d83b14620004525780639047bf5814620004b8578063a7fb79a914620004e4578063ab78ca6f146200054a578063b6db75a014620005b0578063b75e226514620005e0578063d06789471462000692578063e4ef631114620006e6578063f0a5cdd5146200073a575b600080fd5b34156200010857600080fd5b620001126200078e565b6040518080602001828103825283818151815260200191508051906020019080838360005b838110156200015457808201518184015260208101905062000137565b50505050905090810190601f168015620001825780820380516001836020036101000a031916815260200191505b509250505060405180910390f35b34156200019c57600080fd5b6200023a600480803590602001908201803590602001908080601f0160208091040260200160405190810160405280939291908181526020018383808284378201915050505050509190803590602001909190803590602001908201803590602001908080601f0160208091040260200160405190810160405280939291908181526020018383808284378201915050505050509190505062000830565b604051808273ffffffffffffffffffffffffffffffffffffffff1673ffffffffffffffffffffffffffffffffffffffff16815260200191505060405180910390f35b34156200028857600080fd5b620002926200098d565b6040518082815260200191505060405180910390f35b3415620002b457600080fd5b62000349600480803590602001908201803590602001908080601f0160208091040260200160405190810160405280939291908181526020018383808284378201915050505050509190803590602001908201803590602001908080601f0160208091040260200160405190810160405280939291908181526020018383808284378201915050505050509190505062000993565b604051808273ffffffffffffffffffffffffffffffffffffffff1673ffffffffffffffffffffffffffffffffffffffff16815260200191505060405180910390f35b34156200039757600080fd5b620003c5600480803573ffffffffffffffffffffffffffffffffffffffff1690602001909190505062000c37565b604051808215151515815260200191505060405180910390f35b3415620003eb57600080fd5b62000424600480803573ffffffffffffffffffffffffffffffffffffffff16906020019091908035151590602001909190505062000c57565b005b34156200043257600080fd5b6200043c62000d0b565b6040518082815260200191505060405180910390f35b34156200045e57600080fd5b62000476600480803590602001909190505062000d11565b604051808273ffffffffffffffffffffffffffffffffffffffff1673ffffffffffffffffffffffffffffffffffffffff16815260200191505060405180910390f35b3415620004c457600080fd5b620004ce62000d44565b6040518082815260200191505060405180910390f35b3415620004f057600080fd5b62000508600480803590602001909190505062000d4a565b604051808273ffffffffffffffffffffffffffffffffffffffff1673ffffffffffffffffffffffffffffffffffffffff16815260200191505060405180910390f35b34156200055657600080fd5b6200056e600480803590602001909190505062000d7d565b604051808273ffffffffffffffffffffffffffffffffffffffff1673ffffffffffffffffffffffffffffffffffffffff16815260200191505060405180910390f35b3415620005bc57600080fd5b620005c662000db0565b604051808215151515815260200191505060405180910390f35b3415620005ec57600080fd5b62000650600480803590602001908201803590602001908080601f0160208091040260200160405190810160405280939291908181526020018383808284378201915050505050509190803590602001909190803590602001909190505062000e04565b604051808273ffffffffffffffffffffffffffffffffffffffff1673ffffffffffffffffffffffffffffffffffffffff16815260200191505060405180910390f35b34156200069e57600080fd5b620006cc600480803573ffffffffffffffffffffffffffffffffffffffff1690602001909190505062001049565b604051808215151515815260200191505060405180910390f35b3415620006f257600080fd5b62000720600480803573ffffffffffffffffffffffffffffffffffffffff1690602001909190505062001069565b604051808215151515815260200191505060405180910390f35b34156200074657600080fd5b62000774600480803573ffffffffffffffffffffffffffffffffffffffff1690602001909190505062001089565b604051808215151515815260200191505060405180910390f35b60018054600181600116156101000203166002900480601f016020809104026020016040519081016040528092919081815260200182805460018160011615610100020316600290048015620008285780601f10620007fc5761010080835404028352916020019162000828565b820191906000526020600020905b8154815290600101906020018083116200080a57829003601f168201915b505050505081565b600080600260003373ffffffffffffffffffffffffffffffffffffffff1673ffffffffffffffffffffffffffffffffffffffff16815260200190815260200160002060009054906101000a900460ff1615156200088c57600080fd5b62000899858585620010a9565b90506000809054906101000a900473ffffffffffffffffffffffffffffffffffffffff1673ffffffffffffffffffffffffffffffffffffffff166340c10f1982866000604051602001526040518363ffffffff167c0100000000000000000000000000000000000000000000000000000000028152600401808373ffffffffffffffffffffffffffffffffffffffff1673ffffffffffffffffffffffffffffffffffffffff16815260200182815260200192505050602060405180830381600087803b15156200096857600080fd5b6102c65a03f115156200097a57600080fd5b5050506040518051905050509392505050565b600b5481565b600080600260003373ffffffffffffffffffffffffffffffffffffffff1673ffffffffffffffffffffffffffffffffffffffff16815260200190815260200160002060009054906101000a900460ff161515620009ef57600080fd5b8383620009fb62001369565b808060200180602001838103835285818151815260200191508051906020019080838360005b8381101562000a3e57808201518184015260208101905062000a21565b50505050905090810190601f16801562000a6c5780820380516001836020036101000a031916815260200191505b50838103825284818151815260200191508051906020019080838360005b8381101562000aa757808201518184015260208101905062000a8a565b50505050905090810190601f16801562000ad55780820380516001836020036101000a031916815260200191505b50945050505050604051809103906000f080151562000af357600080fd5b90508060046000600554815260200190815260200160002060006101000a81548173ffffffffffffffffffffffffffffffffffffffff021916908373ffffffffffffffffffffffffffffffffffffffff1602179055506001600360008373ffffffffffffffffffffffffffffffffffffffff1673ffffffffffffffffffffffffffffffffffffffff16815260200190815260200160002060006101000a81548160ff0219169083151502179055506005600081548092919060010191905055503073ffffffffffffffffffffffffffffffffffffffff167fd41127bc1ef851a201f5a1dfbd1e1c6476563f6d0379f2ad3c63598549ed420882604051808273ffffffffffffffffffffffffffffffffffffffff1673ffffffffffffffffffffffffffffffffffffffff16815260200191505060405180910390a28091505092915050565b60026020528060005260406000206000915054906101000a900460ff1681565b600260003373ffffffffffffffffffffffffffffffffffffffff1673ffffffffffffffffffffffffffffffffffffffff16815260200190815260200160002060009054906101000a900460ff16151562000cb057600080fd5b80600260008473ffffffffffffffffffffffffffffffffffffffff1673ffffffffffffffffffffffffffffffffffffffff16815260200190815260200160002060006101000a81548160ff0219169083151502179055505050565b60085481565b600a6020528060005260406000206000915054906101000a900473ffffffffffffffffffffffffffffffffffffffff1681565b60055481565b60046020528060005260406000206000915054906101000a900473ffffffffffffffffffffffffffffffffffffffff1681565b60076020528060005260406000206000915054906101000a900473ffffffffffffffffffffffffffffffffffffffff1681565b6000600260003373ffffffffffffffffffffffffffffffffffffffff1673ffffffffffffffffffffffffffffffffffffffff16815260200190815260200160002060009054906101000a900460ff16905090565b600080600260003373ffffffffffffffffffffffffffffffffffffffff1673ffffffffffffffffffffffffffffffffffffffff16815260200190815260200160002060009054906101000a900460ff16151562000e6057600080fd5b84848462000e6d6200137a565b8080602001848152602001838152602001828103825285818151815260200191508051906020019080838360005b8381101562000eb857808201518184015260208101905062000e9b565b50505050905090810190601f16801562000ee65780820380516001836020036101000a031916815260200191505b50945050505050604051809103906000f080151562000f0457600080fd5b90508060076000600854815260200190815260200160002060006101000a81548173ffffffffffffffffffffffffffffffffffffffff021916908373ffffffffffffffffffffffffffffffffffffffff1602179055506001600660008373ffffffffffffffffffffffffffffffffffffffff1673ffffffffffffffffffffffffffffffffffffffff16815260200190815260200160002060006101000a81548160ff0219169083151502179055506008600081548092919060010191905055503073ffffffffffffffffffffffffffffffffffffffff167ff50ca7de500c2b14bb46c061ad2666e1d87be808b1cc626181e358a5441ae43e82604051808273ffffffffffffffffffffffffffffffffffffffff1673ffffffffffffffffffffffffffffffffffffffff16815260200191505060405180910390a2809150509392505050565b60036020528060005260406000206000915054906101000a900460ff1681565b60096020528060005260406000206000915054906101000a900460ff1681565b60066020528060005260406000206000915054906101000a900460ff1681565b6000806000809054906101000a900473ffffffffffffffffffffffffffffffffffffffff168584620010da6200138b565b808473ffffffffffffffffffffffffffffffffffffffff1673ffffffffffffffffffffffffffffffffffffffff1681526020018060200180602001838103835285818151815260200191508051906020019080838360005b838110156200114f57808201518184015260208101905062001132565b50505050905090810190601f1680156200117d5780820380516001836020036101000a031916815260200191505b50838103825284818151815260200191508051906020019080838360005b83811015620011b85780820151818401526020810190506200119b565b50505050905090810190601f168015620011e65780820380516001836020036101000a031916815260200191505b5095505050505050604051809103906000f08015156200120557600080fd5b905080600a6000600b54815260200190815260200160002060006101000a81548173ffffffffffffffffffffffffffffffffffffffff021916908373ffffffffffffffffffffffffffffffffffffffff1602179055506001600960008373ffffffffffffffffffffffffffffffffffffffff1673ffffffffffffffffffffffffffffffffffffffff16815260200190815260200160002060006101000a81548160ff021916908315150217905550600b600081548092919060010191905055503373ffffffffffffffffffffffffffffffffffffffff163073ffffffffffffffffffffffffffffffffffffffff167f43ddc7d8740ab6ff6e5c45cc1273f51516040987aae2dca7d6f7dfdf240598888387604051808373ffffffffffffffffffffffffffffffffffffffff1673ffffffffffffffffffffffffffffffffffffffff1681526020018281526020019250505060405180910390a3809150509392505050565b6040516105f0806200139d83390190565b604051610492806200198d83390190565b6040516106778062001e1f8339019056006060604052341561000f57600080fd5b6040516105f03803806105f08339810160405280805182019190602001805182019190505073__Tools_________________________________63a45f379e836000604051602001526040518263ffffffff167c01000000000000000000000000000000000000000000000000000000000281526004018080602001828103825283818151815260200191508051906020019080838360005b838110156100c35780820151818401526020810190506100a8565b50505050905090810190601f1680156100f05780820380516001836020036101000a031916815260200191505b509250505060206040518083038186803b151561010c57600080fd5b6102c65a03f4151561011d57600080fd5b5050506040518051905015151561013357600080fd5b73__Tools_________________________________63a45f379e826000604051602001526040518263ffffffff167c01000000000000000000000000000000000000000000000000000000000281526004018080602001828103825283818151815260200191508051906020019080838360005b838110156101c25780820151818401526020810190506101a7565b50505050905090810190601f1680156101ef5780820380516001836020036101000a031916815260200191505b509250505060206040518083038186803b151561020b57600080fd5b6102c65a03f4151561021c57600080fd5b5050506040518051905015151561023257600080fd5b8160009080519060200190610248929190610267565b50806001908051906020019061025f929190610267565b50505061030c565b828054600181600116156101000203166002900490600052602060002090601f016020900481019282601f106102a857805160ff19168380011785556102d6565b828001600101855582156102d6579182015b828111156102d55782518255916020019190600101906102ba565b5b5090506102e391906102e7565b5090565b61030991905b808211156103055760008160009055506001016102ed565b5090565b90565b6102d58061031b6000396000f30060606040526004361061004c576000357c0100000000000000000000000000000000000000000000000000000000900463ffffffff1680634589fe0c146100515780639ab03dcb146100df575b600080fd5b341561005c57600080fd5b61006461016d565b6040518080602001828103825283818151815260200191508051906020019080838360005b838110156100a4578082015181840152602081019050610089565b50505050905090810190601f1680156100d15780820380516001836020036101000a031916815260200191505b509250505060405180910390f35b34156100ea57600080fd5b6100f261020b565b6040518080602001828103825283818151815260200191508051906020019080838360005b83811015610132578082015181840152602081019050610117565b50505050905090810190601f16801561015f5780820380516001836020036101000a031916815260200191505b509250505060405180910390f35b60008054600181600116156101000203166002900480601f0160208091040260200160405190810160405280929190818152602001828054600181600116156101000203166002900480156102035780601f106101d857610100808354040283529160200191610203565b820191906000526020600020905b8154815290600101906020018083116101e657829003601f168201915b505050505081565b60018054600181600116156101000203166002900480601f0160208091040260200160405190810160405280929190818152602001828054600181600116156101000203166002900480156102a15780601f10610276576101008083540402835291602001916102a1565b820191906000526020600020905b81548152906001019060200180831161028457829003601f168201915b5050505050815600a165627a7a72305820b377a8b8b5b0db71a4c78a802a89861ce9cd903f1d1584064e408eb3b6e779b000296060604052341561000f57600080fd5b6040516104923803806104928339810160405280805182019190602001805190602001909190805190602001909190505060008211151561004f57600080fd5b6000811015151561005f57600080fd5b73__Tools_________________________________63a45f379e846000604051602001526040518263ffffffff167c01000000000000000000000000000000000000000000000000000000000281526004018080602001828103825283818151815260200191508051906020019080838360005b838110156100ee5780820151818401526020810190506100d3565b50505050905090810190601f16801561011b5780820380516001836020036101000a031916815260200191505b509250505060206040518083038186803b151561013757600080fd5b6102c65a03f4151561014857600080fd5b5050506040518051905015151561015e57600080fd5b826000908051906020019061017492919061018b565b508160018190555080600281905550505050610230565b828054600181600116156101000203166002900490600052602060002090601f016020900481019282601f106101cc57805160ff19168380011785556101fa565b828001600101855582156101fa579182015b828111156101f95782518255916020019190600101906101de565b5b509050610207919061020b565b5090565b61022d91905b80821115610229576000816000905550600101610211565b5090565b90565b6102538061023f6000396000f300606060405260043610610062576000357c0100000000000000000000000000000000000000000000000000000000900463ffffffff16806306fdde031461006757806356e4bc1f146100f5578063d43298991461011e578063d4b839921461014b575b600080fd5b341561007257600080fd5b61007a610174565b6040518080602001828103825283818151815260200191508051906020019080838360005b838110156100ba57808201518184015260208101905061009f565b50505050905090810190601f1680156100e75780820380516001836020036101000a031916815260200191505b509250505060405180910390f35b341561010057600080fd5b610108610212565b6040518082815260200191505060405180910390f35b341561012957600080fd5b610131610218565b604051808215151515815260200191505060405180910390f35b341561015657600080fd5b61015e610221565b6040518082815260200191505060405180910390f35b60008054600181600116156101000203166002900480601f01602080910402602001604051908101604052809291908181526020018280546001816001161561010002031660029004801561020a5780601f106101df5761010080835404028352916020019161020a565b820191906000526020600020905b8154815290600101906020018083116101ed57829003601f168201915b505050505081565b60025481565b60006001905090565b600154815600a165627a7a72305820045f718fbf643044c4be9f612d3ec6a17771401410a1d5baf0a80a48b7f9d5e700296060604052341561000f57600080fd5b60405161067738038061067783398101604052808051906020019091908051820191906020018051820191905050600073ffffffffffffffffffffffffffffffffffffffff168373ffffffffffffffffffffffffffffffffffffffff161415151561007957600080fd5b826000806101000a81548173ffffffffffffffffffffffffffffffffffffffff021916908373ffffffffffffffffffffffffffffffffffffffff16021790555081600190805190602001906100cf9291906100ef565b5080600290805190602001906100e69291906100ef565b50505050610194565b828054600181600116156101000203166002900490600052602060002090601f016020900481019282601f1061013057805160ff191683800117855561015e565b8280016001018555821561015e579182015b8281111561015d578251825591602001919060010190610142565b5b50905061016b919061016f565b5090565b61019191905b8082111561018d576000816000905550600101610175565b5090565b90565b6104d4806101a36000396000f30060606040526004361061006d576000357c0100000000000000000000000000000000000000000000000000000000900463ffffffff16806326d111f5146100725780634fc42c6a14610100578063561416761461012d578063b9a45767146101bb578063fc0c546a146101fd575b600080fd5b341561007d57600080fd5b610085610252565b6040518080602001828103825283818151815260200191508051906020019080838360005b838110156100c55780820151818401526020810190506100aa565b50505050905090810190601f1680156100f25780820380516001836020036101000a031916815260200191505b509250505060405180910390f35b341561010b57600080fd5b6101136102f0565b604051808215151515815260200191505060405180910390f35b341561013857600080fd5b6101406102f9565b6040518080602001828103825283818151815260200191508051906020019080838360005b83811015610180578082015181840152602081019050610165565b50505050905090810190601f1680156101ad5780820380516001836020036101000a031916815260200191505b509250505060405180910390f35b34156101c657600080fd5b6101fb600480803573ffffffffffffffffffffffffffffffffffffffff16906020019091908035906020019091905050610397565b005b341561020857600080fd5b610210610483565b604051808273ffffffffffffffffffffffffffffffffffffffff1673ffffffffffffffffffffffffffffffffffffffff16815260200191505060405180910390f35b60028054600181600116156101000203166002900480601f0160208091040260200160405190810160405280929190818152602001828054600181600116156101000203166002900480156102e85780601f106102bd576101008083540402835291602001916102e8565b820191906000526020600020905b8154815290600101906020018083116102cb57829003601f168201915b505050505081565b60006001905090565b60018054600181600116156101000203166002900480601f01602080910402602001604051908101604052809291908181526020018280546001816001161561010002031660029004801561038f5780601f106103645761010080835404028352916020019161038f565b820191906000526020600020905b81548152906001019060200180831161037257829003601f168201915b505050505081565b6000809054906101000a900473ffffffffffffffffffffffffffffffffffffffff1673ffffffffffffffffffffffffffffffffffffffff1663a9059cbb83836000604051602001526040518363ffffffff167c0100000000000000000000000000000000000000000000000000000000028152600401808373ffffffffffffffffffffffffffffffffffffffff1673ffffffffffffffffffffffffffffffffffffffff16815260200182815260200192505050602060405180830381600087803b151561046357600080fd5b6102c65a03f1151561047457600080fd5b50505060405180519050505050565b6000809054906101000a900473ffffffffffffffffffffffffffffffffffffffff16815600a165627a7a723058208adc97c76c3f61b3561a31d6cc58f0acdd9257b7d2f193662fca8d5b3c06e4b90029a165627a7a72305820bf2a3b4969111f88921e961e89cfa48baf03551220acc43354742007772a578a0029",
  "source": "pragma solidity ^0.4.17;\r\n\r\nimport \"./Employee.sol\";\r\nimport \"./CharityEvent.sol\";\r\nimport \"./IncomingDonation.sol\";\r\nimport \"../OpenCharityMintableToken.sol\";\r\n\r\n\r\ncontract Organization {\r\n    OpenCharityMintableToken token;\r\n\r\n    string public name;\r\n\r\n    // list of admins\r\n    mapping(address => bool) public admins;\r\n\r\n    // list of Employees\r\n    // additional mapping and counter provide iterability\r\n    mapping(address => bool) public employees;\r\n    mapping(uint => address) public employeeIndex;\r\n    uint public employeeCount = 0;\r\n    event EmployeeAdded(address indexed organization, address employee);\r\n\r\n    //list of CharityEvents\r\n    mapping(address => bool) public charityEvents;\r\n    mapping(uint => address) public charityEventIndex;\r\n    uint public charityEventCount = 0;\r\n    event CharityEventAdded(address indexed organization, address charityEvent);\r\n\r\n\r\n    //list of IncomingDonations\r\n    mapping(address => bool) public incomingDonations;\r\n    mapping(uint => address) public incomingDonationIndex;\r\n    uint public incomingDonationCount = 0;\r\n    event IncomingDonationAdded(address indexed organization, address incomingDonation, address indexed who, uint amount);\r\n\r\n\r\n\r\n    function Organization(OpenCharityMintableToken _token, address[] _admins, string _name) public {\r\n        // at least one admin is required\r\n        require(_admins.length > 0);\r\n\r\n        // check that admins addresses array doesn't have empty ones\r\n        for(uint i = 0; i < _admins.length; i++) {\r\n            require(_admins[i] != address(0x0));\r\n            admins[_admins[i]] = true;\r\n        }\r\n\r\n        name = _name;\r\n        token = OpenCharityMintableToken(_token);\r\n    }\r\n\r\n\r\n    /**\r\n   * @dev Add new employee to Organization\r\n   */\r\n    function addEmployee(string _firstName, string _lastName) public onlyAdmin returns(address) {\r\n        // create a new employee\r\n        Employee employee = new Employee(_firstName, _lastName);\r\n\r\n        // add employee to employees list\r\n        employeeIndex[employeeCount] = employee;\r\n        employees[employee] = true;\r\n        employeeCount++;\r\n\r\n        // broadcast event\r\n        EmployeeAdded(this, employee);\r\n\r\n        return employee;\r\n    }\r\n\r\n    /**\r\n   * @dev Add new CharityEvent to Organization\r\n   */\r\n    function addCharityEvent(string _name, uint _target, uint _payed) public onlyAdmin returns(address) {\r\n        CharityEvent charityEvent = new CharityEvent(_name, _target, _payed);\r\n\r\n        // add charityEvent to charityEvents list\r\n        charityEventIndex[charityEventCount] = charityEvent;\r\n        charityEvents[charityEvent] = true;\r\n        charityEventCount++;\r\n\r\n        // broadcast event\r\n        CharityEventAdded(this, charityEvent);\r\n\r\n        return charityEvent;\r\n    }\r\n\r\n    function setIncomingDonation(string _realWorldIdentifier, uint _amount, string _note) public onlyAdmin returns(address) {\r\n        address incomingDonation = addIncomingDonation(_realWorldIdentifier, _amount, _note);\r\n\r\n        token.mint(incomingDonation, _amount);\r\n    }\r\n\r\n    /**\r\n     * @dev Add new IncomingDonation to Organization\r\n     */\r\n    function addIncomingDonation(string _realWorldIdentifier, uint _amount, string _note) internal returns(address) {\r\n\r\n        IncomingDonation incomingDonation = new IncomingDonation(token, _realWorldIdentifier, _note);\r\n\r\n        // add incomingDonation to incomingDonations list\r\n        incomingDonationIndex[incomingDonationCount] = incomingDonation;\r\n        incomingDonations[incomingDonation] = true;\r\n        incomingDonationCount++;\r\n\r\n        // broadcast event\r\n        IncomingDonationAdded(this, incomingDonation, msg.sender, _amount);\r\n\r\n        return incomingDonation;\r\n    }\r\n\r\n    function isAdmin() view external returns (bool) {\r\n        return(admins[msg.sender]);\r\n    }\r\n\r\n    /**\r\n     * @dev Add or revoke admin rights for address\r\n     */\r\n    function setAdmin(address admin, bool value) public onlyAdmin {\r\n        admins[admin] = value;\r\n    }\r\n\r\n\r\n    modifier onlyAdmin() {\r\n        require(admins[msg.sender]);\r\n        _;\r\n    }\r\n}\r\n",
  "sourcePath": "C:\\NodeJS\\gitHub\\oc_client\\contracts\\app\\Organization.sol",
  "compiler": {
    "name": "solc",
    "version": "0.4.18+commit.9cf6e910.Emscripten.clang"
  },
  "schemaVersion": "1.0.1",
  "updatedAt": "2018-01-31T10:57:06.037Z"
}