{
  "contractName": "CharityEvent",
  "abi": [
    {
      "constant": true,
      "inputs": [],
      "name": "name",
      "outputs": [
        {
          "name": "",
          "type": "string"
        }
      ],
      "payable": false,
      "stateMutability": "view",
      "type": "function"
    },
    {
      "constant": true,
      "inputs": [],
      "name": "payed",
      "outputs": [
        {
          "name": "",
          "type": "uint256"
        }
      ],
      "payable": false,
      "stateMutability": "view",
      "type": "function"
    },
    {
      "constant": true,
      "inputs": [],
      "name": "isCharityEvent",
      "outputs": [
        {
          "name": "",
          "type": "bool"
        }
      ],
      "payable": false,
      "stateMutability": "pure",
      "type": "function"
    },
    {
      "constant": true,
      "inputs": [],
      "name": "target",
      "outputs": [
        {
          "name": "",
          "type": "uint256"
        }
      ],
      "payable": false,
      "stateMutability": "view",
      "type": "function"
    },
    {
      "inputs": [
        {
          "name": "_name",
          "type": "string"
        },
        {
          "name": "_target",
          "type": "uint256"
        },
        {
          "name": "_payed",
          "type": "uint256"
        }
      ],
      "payable": false,
      "stateMutability": "nonpayable",
      "type": "constructor"
    }
  ],
  "bytecode": "0x6060604052341561000f57600080fd5b6040516104923803806104928339810160405280805182019190602001805190602001909190805190602001909190505060008211151561004f57600080fd5b6000811015151561005f57600080fd5b73__Tools_________________________________63a45f379e846000604051602001526040518263ffffffff167c01000000000000000000000000000000000000000000000000000000000281526004018080602001828103825283818151815260200191508051906020019080838360005b838110156100ee5780820151818401526020810190506100d3565b50505050905090810190601f16801561011b5780820380516001836020036101000a031916815260200191505b509250505060206040518083038186803b151561013757600080fd5b6102c65a03f4151561014857600080fd5b5050506040518051905015151561015e57600080fd5b826000908051906020019061017492919061018b565b508160018190555080600281905550505050610230565b828054600181600116156101000203166002900490600052602060002090601f016020900481019282601f106101cc57805160ff19168380011785556101fa565b828001600101855582156101fa579182015b828111156101f95782518255916020019190600101906101de565b5b509050610207919061020b565b5090565b61022d91905b80821115610229576000816000905550600101610211565b5090565b90565b6102538061023f6000396000f300606060405260043610610062576000357c0100000000000000000000000000000000000000000000000000000000900463ffffffff16806306fdde031461006757806356e4bc1f146100f5578063d43298991461011e578063d4b839921461014b575b600080fd5b341561007257600080fd5b61007a610174565b6040518080602001828103825283818151815260200191508051906020019080838360005b838110156100ba57808201518184015260208101905061009f565b50505050905090810190601f1680156100e75780820380516001836020036101000a031916815260200191505b509250505060405180910390f35b341561010057600080fd5b610108610212565b6040518082815260200191505060405180910390f35b341561012957600080fd5b610131610218565b604051808215151515815260200191505060405180910390f35b341561015657600080fd5b61015e610221565b6040518082815260200191505060405180910390f35b60008054600181600116156101000203166002900480601f01602080910402602001604051908101604052809291908181526020018280546001816001161561010002031660029004801561020a5780601f106101df5761010080835404028352916020019161020a565b820191906000526020600020905b8154815290600101906020018083116101ed57829003601f168201915b505050505081565b60025481565b60006001905090565b600154815600a165627a7a72305820045f718fbf643044c4be9f612d3ec6a17771401410a1d5baf0a80a48b7f9d5e70029",
  "deployedBytecode": "0x606060405260043610610062576000357c0100000000000000000000000000000000000000000000000000000000900463ffffffff16806306fdde031461006757806356e4bc1f146100f5578063d43298991461011e578063d4b839921461014b575b600080fd5b341561007257600080fd5b61007a610174565b6040518080602001828103825283818151815260200191508051906020019080838360005b838110156100ba57808201518184015260208101905061009f565b50505050905090810190601f1680156100e75780820380516001836020036101000a031916815260200191505b509250505060405180910390f35b341561010057600080fd5b610108610212565b6040518082815260200191505060405180910390f35b341561012957600080fd5b610131610218565b604051808215151515815260200191505060405180910390f35b341561015657600080fd5b61015e610221565b6040518082815260200191505060405180910390f35b60008054600181600116156101000203166002900480601f01602080910402602001604051908101604052809291908181526020018280546001816001161561010002031660029004801561020a5780601f106101df5761010080835404028352916020019161020a565b820191906000526020600020905b8154815290600101906020018083116101ed57829003601f168201915b505050505081565b60025481565b60006001905090565b600154815600a165627a7a72305820045f718fbf643044c4be9f612d3ec6a17771401410a1d5baf0a80a48b7f9d5e70029",
  "source": "pragma solidity ^0.4.17;\r\n\r\nimport \"./lib/Tools.sol\";\r\nimport \"./OrganizationInterface.sol\";\r\n\r\ncontract CharityEvent {\r\n\r\n  // name of event\r\n  string public name;\r\n\r\n  // how much funds is required\r\n  uint public target;\r\n  // how much funds payed to needy\r\n  uint public payed;\r\n\r\n  function CharityEvent(string _name, uint _target, uint _payed) public {\r\n    require(_target > 0);\r\n    require(_payed >= 0);\r\n\r\n    require(!Tools.isEmptyString(_name));\r\n\r\n    name = _name;\r\n    target = _target;\r\n    payed = _payed;\r\n  }\r\n\r\n\r\n\r\n  // check that contract is charity event contract\r\n  function isCharityEvent() pure public returns (bool) {\r\n    return true;\r\n  }\r\n\r\n\r\n}\r\n",
  "sourcePath": "C:\\NodeJS\\gitHub\\oc_client\\contracts\\app\\CharityEvent.sol",
  "compiler": {
    "name": "solc",
    "version": "0.4.18+commit.9cf6e910.Emscripten.clang"
  },
  "schemaVersion": "1.0.1",
  "updatedAt": "2018-01-31T10:57:06.035Z"
}