{
  "contractName": "Tools",
  "abi": [
    {
      "constant": true,
      "inputs": [
        {
          "name": "str",
          "type": "string"
        }
      ],
      "name": "isEmptyString",
      "outputs": [
        {
          "name": "",
          "type": "bool"
        }
      ],
      "payable": false,
      "stateMutability": "pure",
      "type": "function"
    }
  ],
  "bytecode": "0x6060604052341561000f57600080fd5b6101048061001e6000396000f300606060405260043610603f576000357c0100000000000000000000000000000000000000000000000000000000900463ffffffff168063a45f379e146044575b600080fd5b6092600480803590602001908201803590602001908080601f0160208091040260200160405190810160405280939291908181526020018383808284378201915050505050509190505060ac565b604051808215151515815260200191505060405180910390f35b600060b460c4565b8290506000815114915050919050565b6020604051908101604052806000815250905600a165627a7a723058200a2350b9adb18a622c5f55890a51f24f9143db0a6e1a794e8659c81bb37c4c1d0029",
  "source": "pragma solidity ^0.4.17;\r\n\r\n\r\n// TODO: find more descriptive name\r\n\r\nlibrary Tools {\r\n\r\n    function isEmptyString(string memory str) pure public returns (bool) {\r\n        bytes memory emptyTest = bytes(str);\r\n        return (emptyTest.length == 0);\r\n    }\r\n\r\n}",
  "sourcePath": "C:\\NodeJS\\gitHub\\oc_client\\contracts\\app\\lib\\Tools.sol",
  "compiler": {
    "name": "solc",
    "version": "0.4.18+commit.9cf6e910.Emscripten.clang"
  },
  "schemaVersion": "1.0.1",
  "updatedAt": "2018-01-31T10:57:06.038Z"
}